:10000000170102001301010013030500938305008B
:10001000130E0000930E000063587E0413152E008B
:100020003305A300032505001301C1FE2328110099
:100030002326D1012324C101232271002320610042
:10004000EF00C00683200101832EC100032E810032
:10005000832341000323010013014101B38EAE004D
:10006000130E1E006FF05FFB13850E001301C1FE1F
:10007000232811002326D1012324C101232271004A
:1000800023206100EF00C00A83200101832EC100FC
:10009000032E81008323410003230100130141014A
:0C00A000678000002380A500678000003E
:1000AC00130101FD2326810213040103232EA4FC5A
:1000BC00232CB4FC232604FE232404FE8327C4FD36
:1000CC0063D60702930710002324F4FE8327C4FD94
:1000DC00B307F040232EF4FC6F0040010327C4FE4D
:1000EC00832784FDB307F7002326F4FE8327C4FD82
:1000FC001387F7FF232EE4FCE39207FE832784FE8D
:10010C00638807008327C4FEB307F0406F008000AC
:10011C008327C4FE138507000324C10213010103C6
:04012C0067800000E8
:10013000130101FD2326110223248102130401036C
:10014000232EA4FC232604FE6F0000018327C4FE97
:10015000938717002326F4FE8325C4FE0325C4FEDF
:10016000EFF0DFF4130705008327C4FDE340F7FE3B
:100170008327C4FE138507008320C1020324810264
:08018000130101036780000078
:10018800130101FE232E1100232C81001304010208
:1001980093055000B707010013850700EFF05FE6ED
:1001A8002326A4FE93055000B707010013854701D5
:1001B800EFF01FE52324A4FE0327C4FE832784FE53
:1001C800B327F70093F7F70FA303F4FE030774FEB2
:1001D800B70701009385870213050700EFF01FECAE
:0401E8006F000000A4
:020000021000EC
:100000000500000002000000FDFFFFFF07000000E8
:0400100006000000E6
:1000140006000000FFFFFFFF0100000000000000D9
:0400240003000000D5
:040000030000018870
:00000001FF
