:100000009302000063DCA202130300006354A30206
:10001000B383A202B383630093932300330E76006D
:10002000B38E750083AE0E002320DE011303130090
:100030006FF0DFFD938212006FF0DFFC678000003D
:100040009302000063DCA206130300006354A306BE
:10005000B383A202B383630093932300330E76002D
:1000600023200E00930E000063D2AE04338FA20251
:10007000330FDF01131F2F00B38FE60103AF0F0013
:10008000B38FAE02B38F6F00939F2F00B383F6013F
:1000900083AF0300B30FFF03032F0E00330FFF01E5
:1000A0002320EE01938E1E006FF01FFC130313003C
:1000B0006FF0DFF9938212006FF0DFF867800000C5
:1000C00017010200130101F493840600B309A5028D
:1000D00093992900330931019302000063D0A204EF
:1000E000130300006358A302B383A202B383630027
:1000F00093932300338E740063966200930E100076
:100100006F008000930E00002320DE011303130014
:100110006FF05FFD938212006FF05FFC130A100016
:10012000930A060063CA4A0913860600138B060069
:10013000130141FD2324A1022322B1022320C10285
:10014000232ED100232C1100232A910023263101D4
:10015000232441012322510123206101B309A50277
:10016000939929003309314123282101930609007D
:10017000EF0080150325810283250101032641013B
:10018000EFF01FE8032581028325410203260102C7
:100190008326C101832081018324410103290101B8
:1001A0008329C100032A8100832A4100032B010017
:0C01B0001301C102130A1A00678000004E
:1001BC00130101FD2326810213040103232EA4FC49
:1001CC00232CB4FC232AC4FC8326C4FD1386F6FF1F
:1001DC002322C4FE13860600130E0600930E0000A5
:1001EC001356BE0193985E00B368160113185E0097
:1001FC000326C4FD9305F6FF2320B4FE93050600E9
:10020C0013830500930300009355B3019397530098
:10021C00B3E7F50013175300232404FE6F00000806
:10022C00232604FE6F00000613870600832784FE36
:10023C00B307F70293972700032784FD3307F700D2
:10024C0093050600832784FEB387F5029397270056
:10025C00832544FDB385F5008327C4FE93972700BF
:10026C00B307F70003A707008327C4FE9397270063
:10027C00B387F50023A0E7008327C4FE93871700FC
:10028C002326F4FE0327C4FE8327C4FDE34EF7F8B0
:10029C00832784FE938717002324F4FE032784FE10
:1002AC008327C4FDE34EF7F6130000001300000093
:0C02BC000324C10213010103678000004D
:1002C800130101FC232E8102232C2103232A31034D
:1002D800130401042326A4FC2324B4FC2322C4FC15
:1002E8002320D4FC0326C4FC9306F6FF2326D4FE61
:1002F8009306060013890600930900009356B90176
:1003080093935900B3E37600131359008325C4FC73
:100318009386F5FF232ED4FC93860500138F0600E1
:10032800930F00009356BF0193985F00B3E816013E
:1003380013185F008326C4FC1385F6FF232CA4FC46
:1003480013850600130E0500930E00001355BE0119
:1003580093975E00B367F50013175E00232004FE31
:100368006F000012232204FE6F000010138706009E
:10037800832704FEB307F70293972700032704FC9B
:100388003307F700832744FE93972700B307F70046
:1003980023A00700232404FE6F00800B13870600A8
:1003A800832704FEB307F70293972700032704FC6B
:1003B8003307F700832744FE93972700B307F70016
:1003C80003A7070013050600832704FEB307F502F9
:1003D80093972700032584FC3305F500832784FEC3
:1003E80093972700B307F50003A5070013880500B6
:1003F800832784FEB307F80293972700032844FC59
:100408003308F800832744FE93972700B307F800C2
:1004180083A70700B307F50213880600032504FE27
:100428003305A80213152500032804FC3305A8008A
:100438003307F700832744FE93972700B307F50097
:1004480023A0E700832784FE938717002324F4FE64
:10045800032784FE8327C4FCE342F7F4832744FE82
:10046800938717002322F4FE032744FE8327C4FC46
:10047800E34EF7EE832704FE938717002320F4FE4C
:10048800032704FE8327C4FCE34EF7EC13000000A7
:10049800130000000324C1030329810383294103B6
:0804A80013010104678000004C
:1004B000130101FF232611002324810013040101ED
:1004C000B70701009386470613063000B7070100FF
:1004D0009385070013055000EFF09FBEB70701009A
:1004E0009387470603A7C700B707010023A4E70CBB
:0404F0006F00000099
:020000021000EC
:1000000000000000010000000100000000000000EE
:1000100000000000000000000000000001000000DF
:1000200000000000000000000100000000000000CF
:1000300000000000000000000100000001000000BE
:1000400000000000010000000000000001000000AE
:10005000000000000000000000000000010000009F
:04006000010000009B
:04000003000004B045
:00000001FF
