:10000000130181FF2322110023208100130401002A
:1000100093020000634C5502130300006344650221
:10002000B383A202B383630093932300338E7500DE
:10003000832E0E00330F76002320DF0113031300FD
:100040006FF0DFFD938212006FF0DFFC8320410030
:10005000032401001301810067800000130101FFE8
:100060002326110023248100232291002320210133
:100070001304010093020000634C550613030000B3
:1000800063446506B383A202B383630093932300A2
:10009000338E760023200E00930E00006342D505B8
:1000A000338FA202330FDF01131F2F00338FE501BF
:1000B000032F0F00B38FAE02B38F6F00939F2F00FB
:1000C000B30FF60183AF0F00330FFF03832F0E0032
:1000D000B38FEF012320FE01938E1E006FF01FFCF3
:1000E000130313006FF0DFF9938212006FF0DFF853
:1000F0008320C100032481008324410003290100DF
:100100001301010167800000130101FE232081001B
:100110002322910023242101232631012328410198
:10012000232A5101232C6101232E11001304050001
:10013000138A0600938A0500B30284029392220078
:1001400033015140130B01009304000063D0840479
:100150001309000063588902B3838402B383230127
:1001600093932300B3037A0063862401130E0000E7
:100170006F008000130E100023A0C30113091900A3
:100180006FF05FFD938414006FF05FFC930E060028
:100190009309100063C83E031305040093850A0009
:1001A00013060A0093060B00EFF05FEB1305040043
:1001B00093050B0013060A00EFF09FE493891900E2
:1001C0006FF05FFDB302840293922200330151006D
:1001D0008320C101032B8101832A4101032A0101EC
:1001E0008329C100032981008324410003240100E5
:0801F000130101026780000009
:1001F800130101FF232611002324810013040101A8
:10020800B70701009386470613063000B7070100B9
:100218009385070013055000EFF09FEEB707010024
:100228009387470603A7C700B707010023A4E70C75
:040238006F00000053
:020000021000EC
:1000000000000000010000000100000000000000EE
:1000100000000000000000000000000001000000DF
:1000200000000000000000000100000000000000CF
:1000300000000000000000000100000001000000BE
:1000400000000000010000000000000001000000AE
:10005000000000000000000000000000010000009F
:04006000010000009B
:04000003000001F800
:00000001FF
